{
  "contractName": "LandRegistry",
  "abi": [
    {
      "anonymous": false,
      "inputs": [
        {
          "indexed": false,
          "internalType": "string",
          "name": "propertyId",
          "type": "string"
        },
        {
          "indexed": false,
          "internalType": "address",
          "name": "owner",
          "type": "address"
        }
      ],
      "name": "PropertyRegistered",
      "type": "event"
    },
    {
      "anonymous": false,
      "inputs": [
        {
          "indexed": false,
          "internalType": "string",
          "name": "propertyId",
          "type": "string"
        },
        {
          "indexed": false,
          "internalType": "address",
          "name": "oldOwner",
          "type": "address"
        },
        {
          "indexed": false,
          "internalType": "address",
          "name": "newOwner",
          "type": "address"
        }
      ],
      "name": "PropertyTransferred",
      "type": "event"
    },
    {
      "inputs": [
        {
          "internalType": "string",
          "name": "_p_id",
          "type": "string"
        },
        {
          "internalType": "address",
          "name": "_owner",
          "type": "address"
        },
        {
          "internalType": "string",
          "name": "_details",
          "type": "string"
        },
        {
          "internalType": "string[]",
          "name": "_addresses",
          "type": "string[]"
        }
      ],
      "name": "registerProperty",
      "outputs": [],
      "stateMutability": "nonpayable",
      "type": "function"
    },
    {
      "inputs": [
        {
          "internalType": "string",
          "name": "_p_id",
          "type": "string"
        }
      ],
      "name": "viewPropertyByPId",
      "outputs": [
        {
          "internalType": "string",
          "name": "",
          "type": "string"
        },
        {
          "internalType": "address",
          "name": "",
          "type": "address"
        },
        {
          "internalType": "string",
          "name": "",
          "type": "string"
        },
        {
          "internalType": "string[]",
          "name": "",
          "type": "string[]"
        }
      ],
      "stateMutability": "view",
      "type": "function",
      "constant": true
    },
    {
      "inputs": [
        {
          "internalType": "string",
          "name": "_p_id",
          "type": "string"
        },
        {
          "internalType": "address",
          "name": "_newOwner",
          "type": "address"
        }
      ],
      "name": "transferProperty",
      "outputs": [],
      "stateMutability": "nonpayable",
      "type": "function"
    },
    {
      "inputs": [],
      "name": "getAllProperties",
      "outputs": [
        {
          "internalType": "string[]",
          "name": "",
          "type": "string[]"
        },
        {
          "internalType": "address[]",
          "name": "",
          "type": "address[]"
        },
        {
          "internalType": "string[]",
          "name": "",
          "type": "string[]"
        },
        {
          "internalType": "string[][]",
          "name": "",
          "type": "string[][]"
        }
      ],
      "stateMutability": "view",
      "type": "function",
      "constant": true
    }
  ],
  "bytecode": "0x608060405234801561001057600080fd5b5061214b806100206000396000f3fe608060405234801561001057600080fd5b506004361061004c5760003560e01c80633d51402c1461005157806381cb70db14610072578063c67e2446146100a5578063f64f7fb2146100c1575b600080fd5b6100596100dd565b6040516100699493929190611bb9565b60405180910390f35b61008c600480360381019061008791906115e9565b6107cf565b60405161009c9493929190611c88565b60405180910390f35b6100bf60048036038101906100ba919061167e565b610c36565b005b6100db60048036038101906100d6919061162a565b610ebd565b005b606080606080600060018054905067ffffffffffffffff81111561012a577f4e487b7100000000000000000000000000000000000000000000000000000000600052604160045260246000fd5b60405190808252806020026020018201604052801561015d57816020015b60608152602001906001900390816101485790505b509050600060018054905067ffffffffffffffff8111156101a7577f4e487b7100000000000000000000000000000000000000000000000000000000600052604160045260246000fd5b6040519080825280602002602001820160405280156101d55781602001602082028036833780820191505090505b509050600060018054905067ffffffffffffffff81111561021f577f4e487b7100000000000000000000000000000000000000000000000000000000600052604160045260246000fd5b60405190808252806020026020018201604052801561025257816020015b606081526020019060019003908161023d5790505b509050600060018054905067ffffffffffffffff81111561029c577f4e487b7100000000000000000000000000000000000000000000000000000000600052604160045260246000fd5b6040519080825280602002602001820160405280156102cf57816020015b60608152602001906001900390816102ba5790505b50905060005b6001805490508110156107b8576000806001838154811061031f577f4e487b7100000000000000000000000000000000000000000000000000000000600052603260045260246000fd5b906000526020600020016040516103369190611ba2565b90815260200160405180910390206040518060c001604052908160008201805461035f90611fb4565b80601f016020809104026020016040519081016040528092919081815260200182805461038b90611fb4565b80156103d85780601f106103ad576101008083540402835291602001916103d8565b820191906000526020600020905b8154815290600101906020018083116103bb57829003601f168201915b505050505081526020016001820180546103f190611fb4565b80601f016020809104026020016040519081016040528092919081815260200182805461041d90611fb4565b801561046a5780601f1061043f5761010080835404028352916020019161046a565b820191906000526020600020905b81548152906001019060200180831161044d57829003601f168201915b505050505081526020016002820160009054906101000a900473ffffffffffffffffffffffffffffffffffffffff1673ffffffffffffffffffffffffffffffffffffffff1673ffffffffffffffffffffffffffffffffffffffff1681526020016003820180546104d990611fb4565b80601f016020809104026020016040519081016040528092919081815260200182805461050590611fb4565b80156105525780601f1061052757610100808354040283529160200191610552565b820191906000526020600020905b81548152906001019060200180831161053557829003601f168201915b5050505050815260200160048201805480602002602001604051908101604052809291908181526020016000905b8282101561062c57838290600052602060002001805461059f90611fb4565b80601f01602080910402602001604051908101604052809291908181526020018280546105cb90611fb4565b80156106185780601f106105ed57610100808354040283529160200191610618565b820191906000526020600020905b8154815290600101906020018083116105fb57829003601f168201915b505050505081526020019060010190610580565b5050505081526020016005820160009054906101000a900460ff1615151515815250509050806000015186838151811061068f577f4e487b7100000000000000000000000000000000000000000000000000000000600052603260045260246000fd5b602002602001018190525080604001518583815181106106d8577f4e487b7100000000000000000000000000000000000000000000000000000000600052603260045260246000fd5b602002602001019073ffffffffffffffffffffffffffffffffffffffff16908173ffffffffffffffffffffffffffffffffffffffff16815250508060600151848381518110610750577f4e487b7100000000000000000000000000000000000000000000000000000000600052603260045260246000fd5b60200260200101819052508060800151838381518110610799577f4e487b7100000000000000000000000000000000000000000000000000000000600052603260045260246000fd5b60200260200101819052505080806107b090611fe6565b9150506102d5565b508383838397509750975097505050505090919293565b60606000606080600060018054905090505b6000811115610bf357600080600180846107fb9190611ed8565b81548110610832577f4e487b7100000000000000000000000000000000000000000000000000000000600052603260045260246000fd5b906000526020600020016040516108499190611ba2565b90815260200160405180910390206040518060c001604052908160008201805461087290611fb4565b80601f016020809104026020016040519081016040528092919081815260200182805461089e90611fb4565b80156108eb5780601f106108c0576101008083540402835291602001916108eb565b820191906000526020600020905b8154815290600101906020018083116108ce57829003601f168201915b5050505050815260200160018201805461090490611fb4565b80601f016020809104026020016040519081016040528092919081815260200182805461093090611fb4565b801561097d5780601f106109525761010080835404028352916020019161097d565b820191906000526020600020905b81548152906001019060200180831161096057829003601f168201915b505050505081526020016002820160009054906101000a900473ffffffffffffffffffffffffffffffffffffffff1673ffffffffffffffffffffffffffffffffffffffff1673ffffffffffffffffffffffffffffffffffffffff1681526020016003820180546109ec90611fb4565b80601f0160208091040260200160405190810160405280929190818152602001828054610a1890611fb4565b8015610a655780601f10610a3a57610100808354040283529160200191610a65565b820191906000526020600020905b815481529060010190602001808311610a4857829003601f168201915b5050505050815260200160048201805480602002602001604051908101604052809291908181526020016000905b82821015610b3f578382906000526020600020018054610ab290611fb4565b80601f0160208091040260200160405190810160405280929190818152602001828054610ade90611fb4565b8015610b2b5780601f10610b0057610100808354040283529160200191610b2b565b820191906000526020600020905b815481529060010190602001808311610b0e57829003601f168201915b505050505081526020019060010190610a93565b5050505081526020016005820160009054906101000a900460ff161515151581525050905086604051602001610b759190611b63565b604051602081830303815290604052805190602001208160200151604051602001610ba09190611b63565b604051602081830303815290604052805190602001201415610bdf57806000015181604001518260600151836080015195509550955095505050610c2f565b508080610beb90611f8a565b9150506107e1565b506040517f08c379a0000000000000000000000000000000000000000000000000000000008152600401610c2690611d22565b60405180910390fd5b9193509193565b600284604051610c469190611b63565b908152602001604051809103902060009054906101000a900460ff1615610ca2576040517f08c379a0000000000000000000000000000000000000000000000000000000008152600401610c9990611ce2565b60405180910390fd5b60008484604051602001610cb7929190611b7a565b60405160208183030381529060405290506040518060c001604052808281526020018681526020018573ffffffffffffffffffffffffffffffffffffffff16815260200184815260200183815260200160011515815250600082604051610d1e9190611b63565b90815260200160405180910390206000820151816000019080519060200190610d4892919061137e565b506020820151816001019080519060200190610d6592919061137e565b5060408201518160020160006101000a81548173ffffffffffffffffffffffffffffffffffffffff021916908373ffffffffffffffffffffffffffffffffffffffff1602179055506060820151816003019080519060200190610dc992919061137e565b506080820151816004019080519060200190610de6929190611404565b5060a08201518160050160006101000a81548160ff021916908315150217905550905050600181908060018154018082558091505060019003906000526020600020016000909190919091509080519060200190610e4592919061137e565b506001600286604051610e589190611b63565b908152602001604051809103902060006101000a81548160ff0219169083151502179055507fba4092460bba778b9ffed9867d5694153585e1eaff95260f3b4b35cf7eb9c48e8185604051610eae929190611c1a565b60405180910390a15050505050565b60008233604051602001610ed2929190611b7a565b6040516020818303038152906040529050600081604051610ef39190611b63565b908152602001604051809103902060050160009054906101000a900460ff16610f51576040517f08c379a0000000000000000000000000000000000000000000000000000000008152600401610f4890611d22565b60405180910390fd5b3373ffffffffffffffffffffffffffffffffffffffff16600082604051610f789190611b63565b908152602001604051809103902060020160009054906101000a900473ffffffffffffffffffffffffffffffffffffffff1673ffffffffffffffffffffffffffffffffffffffff1614611000576040517f08c379a0000000000000000000000000000000000000000000000000000000008152600401610ff790611d02565b60405180910390fd5b60008383604051602001611015929190611b7a565b60405160208183030381529060405290506040518060c001604052808281526020018581526020018473ffffffffffffffffffffffffffffffffffffffff1681526020016000846040516110699190611b63565b9081526020016040518091039020600301805461108590611fb4565b80601f01602080910402602001604051908101604052809291908181526020018280546110b190611fb4565b80156110fe5780601f106110d3576101008083540402835291602001916110fe565b820191906000526020600020905b8154815290600101906020018083116110e157829003601f168201915b505050505081526020016000846040516111189190611b63565b9081526020016040518091039020600401805480602002602001604051908101604052809291908181526020016000905b828210156111f557838290600052602060002001805461116890611fb4565b80601f016020809104026020016040519081016040528092919081815260200182805461119490611fb4565b80156111e15780601f106111b6576101008083540402835291602001916111e1565b820191906000526020600020905b8154815290600101906020018083116111c457829003601f168201915b505050505081526020019060010190611149565b505050508152602001600115158152506000826040516112159190611b63565b9081526020016040518091039020600082015181600001908051906020019061123f92919061137e565b50602082015181600101908051906020019061125c92919061137e565b5060408201518160020160006101000a81548173ffffffffffffffffffffffffffffffffffffffff021916908373ffffffffffffffffffffffffffffffffffffffff16021790555060608201518160030190805190602001906112c092919061137e565b5060808201518160040190805190602001906112dd929190611404565b5060a08201518160050160006101000a81548160ff02191690831515021790555090505060018190806001815401808255809150506001900390600052602060002001600090919091909150908051906020019061133c92919061137e565b507fc97abf666e272fea65687f234e376b717fd130c2a8b0fc847228e7aa0b57e9bd82338560405161137093929190611c4a565b60405180910390a150505050565b82805461138a90611fb4565b90600052602060002090601f0160209004810192826113ac57600085556113f3565b82601f106113c557805160ff19168380011785556113f3565b828001600101855582156113f3579182015b828111156113f25782518255916020019190600101906113d7565b5b5090506114009190611464565b5090565b828054828255906000526020600020908101928215611453579160200282015b8281111561145257825182908051906020019061144292919061137e565b5091602001919060010190611424565b5b5090506114609190611481565b5090565b5b8082111561147d576000816000905550600101611465565b5090565b5b808211156114a1576000818161149891906114a5565b50600101611482565b5090565b5080546114b190611fb4565b6000825580601f106114c357506114e2565b601f0160209004906000526020600020908101906114e19190611464565b5b50565b60006114f86114f384611d73565b611d42565b9050808382526020820190508260005b85811015611538578135850161151e88826115bf565b845260208401935060208301925050600181019050611508565b5050509392505050565b600061155561155084611d9f565b611d42565b90508281526020810184848401111561156d57600080fd5b611578848285611f48565b509392505050565b60008135905061158f816120fe565b92915050565b600082601f8301126115a657600080fd5b81356115b68482602086016114e5565b91505092915050565b600082601f8301126115d057600080fd5b81356115e0848260208601611542565b91505092915050565b6000602082840312156115fb57600080fd5b600082013567ffffffffffffffff81111561161557600080fd5b611621848285016115bf565b91505092915050565b6000806040838503121561163d57600080fd5b600083013567ffffffffffffffff81111561165757600080fd5b611663858286016115bf565b925050602061167485828601611580565b9150509250929050565b6000806000806080858703121561169457600080fd5b600085013567ffffffffffffffff8111156116ae57600080fd5b6116ba878288016115bf565b94505060206116cb87828801611580565b935050604085013567ffffffffffffffff8111156116e857600080fd5b6116f4878288016115bf565b925050606085013567ffffffffffffffff81111561171157600080fd5b61171d87828801611595565b91505092959194509250565b60006117358383611769565b60208301905092915050565b600061174d8383611871565b905092915050565b6000611761838361195b565b905092915050565b61177281611f0c565b82525050565b61178181611f0c565b82525050565b61179861179382611f0c565b61202f565b82525050565b60006117a982611e14565b6117b38185611e67565b93506117be83611dcf565b8060005b838110156117ef5781516117d68882611729565b97506117e183611e40565b9250506001810190506117c2565b5085935050505092915050565b600061180782611e1f565b6118118185611e78565b93508360208202850161182385611ddf565b8060005b8581101561185f57848403895281516118408582611741565b945061184b83611e4d565b925060208a01995050600181019050611827565b50829750879550505050505092915050565b600061187c82611e2a565b6118868185611e89565b93508360208202850161189885611def565b8060005b858110156118d457848403895281516118b58582611755565b94506118c083611e5a565b925060208a0199505060018101905061189c565b50829750879550505050505092915050565b60006118f182611e2a565b6118fb8185611e9a565b93508360208202850161190d85611def565b8060005b85811015611949578484038952815161192a8582611755565b945061193583611e5a565b925060208a01995050600181019050611911565b50829750879550505050505092915050565b600061196682611e35565b6119708185611eab565b9350611980818560208601611f57565b611989816120e0565b840191505092915050565b600061199f82611e35565b6119a98185611ebc565b93506119b9818560208601611f57565b6119c2816120e0565b840191505092915050565b60006119d882611e35565b6119e28185611ecd565b93506119f2818560208601611f57565b80840191505092915050565b60008154611a0b81611fb4565b611a158186611ecd565b94506001821660008114611a305760018114611a4157611a74565b60ff19831686528186019350611a74565b611a4a85611dff565b60005b83811015611a6c57815481890152600182019150602081019050611a4d565b838801955050505b50505092915050565b6000611a8a601e83611ebc565b91507f50726f706572747920494420616c7265616479207265676973746572656400006000830152602082019050919050565b6000611aca602883611ebc565b91507f4f6e6c7920746865206f776e65722063616e207472616e73666572207468652060008301527f70726f70657274790000000000000000000000000000000000000000000000006020830152604082019050919050565b6000611b30601783611ebc565b91507f50726f706572747920646f6573206e6f742065786973740000000000000000006000830152602082019050919050565b6000611b6f82846119cd565b915081905092915050565b6000611b8682856119cd565b9150611b928284611787565b6014820191508190509392505050565b6000611bae82846119fe565b915081905092915050565b60006080820190508181036000830152611bd381876118e6565b90508181036020830152611be7818661179e565b90508181036040830152611bfb81856118e6565b90508181036060830152611c0f81846117fc565b905095945050505050565b60006040820190508181036000830152611c348185611994565b9050611c436020830184611778565b9392505050565b60006060820190508181036000830152611c648186611994565b9050611c736020830185611778565b611c806040830184611778565b949350505050565b60006080820190508181036000830152611ca28187611994565b9050611cb16020830186611778565b8181036040830152611cc38185611994565b90508181036060830152611cd781846118e6565b905095945050505050565b60006020820190508181036000830152611cfb81611a7d565b9050919050565b60006020820190508181036000830152611d1b81611abd565b9050919050565b60006020820190508181036000830152611d3b81611b23565b9050919050565b6000604051905081810181811067ffffffffffffffff82111715611d6957611d686120b1565b5b8060405250919050565b600067ffffffffffffffff821115611d8e57611d8d6120b1565b5b602082029050602081019050919050565b600067ffffffffffffffff821115611dba57611db96120b1565b5b601f19601f8301169050602081019050919050565b6000819050602082019050919050565b6000819050602082019050919050565b6000819050602082019050919050565b60008190508160005260206000209050919050565b600081519050919050565b600081519050919050565b600081519050919050565b600081519050919050565b6000602082019050919050565b6000602082019050919050565b6000602082019050919050565b600082825260208201905092915050565b600082825260208201905092915050565b600082825260208201905092915050565b600082825260208201905092915050565b600082825260208201905092915050565b600082825260208201905092915050565b600081905092915050565b6000611ee382611f3e565b9150611eee83611f3e565b925082821015611f0157611f00612053565b5b828203905092915050565b6000611f1782611f1e565b9050919050565b600073ffffffffffffffffffffffffffffffffffffffff82169050919050565b6000819050919050565b82818337600083830152505050565b60005b83811015611f75578082015181840152602081019050611f5a565b83811115611f84576000848401525b50505050565b6000611f9582611f3e565b91506000821415611fa957611fa8612053565b5b600182039050919050565b60006002820490506001821680611fcc57607f821691505b60208210811415611fe057611fdf612082565b5b50919050565b6000611ff182611f3e565b91507fffffffffffffffffffffffffffffffffffffffffffffffffffffffffffffffff82141561202457612023612053565b5b600182019050919050565b600061203a82612041565b9050919050565b600061204c826120f1565b9050919050565b7f4e487b7100000000000000000000000000000000000000000000000000000000600052601160045260246000fd5b7f4e487b7100000000000000000000000000000000000000000000000000000000600052602260045260246000fd5b7f4e487b7100000000000000000000000000000000000000000000000000000000600052604160045260246000fd5b6000601f19601f8301169050919050565b60008160601b9050919050565b61210781611f0c565b811461211257600080fd5b5056fea2646970667358221220623555dc6452609250a912d3a67cd10cbda4b61eb3d732e14b6c51089e0d2f9a64736f6c63430008000033",
  "immutableReferences": {},
  "source": "// SPDX-License-Identifier: MIT\r\npragma solidity ^0.8.0;\r\n\r\ncontract LandRegistry {\r\n    struct Property {\r\n        string propertyId; // Combination of p_id and owner address\r\n        string p_id;       // Original property ID\r\n        address owner;     // Current owner's address\r\n        string details;    // Property details\r\n        string[] addresses; // Array of additional addresses as strings\r\n        bool exists;       // Indicates if the property exists\r\n    }\r\n\r\n    mapping(string => Property) private properties;\r\n    string[] private propertyIds; // To keep track of all registered property IDs\r\n    mapping(string => bool) private registeredPIds; // Track registered p_ids to ensure uniqueness\r\n\r\n    event PropertyRegistered(string propertyId, address owner);\r\n    event PropertyTransferred(string propertyId, address oldOwner, address newOwner);\r\n\r\n    // Function to register a property\r\n    function registerProperty(string memory _p_id, address _owner, string memory _details, string[] memory _addresses) public {\r\n        require(!registeredPIds[_p_id], \"Property ID already registered\");\r\n\r\n        string memory propertyId = string(abi.encodePacked(_p_id, _owner));\r\n        properties[propertyId] = Property(propertyId, _p_id, _owner, _details, _addresses, true);\r\n        propertyIds.push(propertyId);\r\n        registeredPIds[_p_id] = true; // Mark p_id as registered\r\n\r\n        emit PropertyRegistered(propertyId, _owner);\r\n    }\r\n\r\n    // New function to view property by p_id\r\n    function viewPropertyByPId(string memory _p_id) public view returns (string memory, address, string memory, string[] memory) {\r\n        // Loop through propertyIds to find the latest entry for the given p_id\r\n        for (uint256 i = propertyIds.length; i > 0; i--) {\r\n            Property memory property = properties[propertyIds[i - 1]];\r\n            if (keccak256(abi.encodePacked(property.p_id)) == keccak256(abi.encodePacked(_p_id))) {\r\n                return (property.propertyId, property.owner, property.details, property.addresses);\r\n            }\r\n        }\r\n        revert(\"Property does not exist\");\r\n    }\r\n\r\n    // Function to transfer property ownership\r\n    function transferProperty(string memory _p_id, address _newOwner) public {\r\n        // Construct the current property ID based on p_id and caller's address\r\n        string memory currentPropertyId = string(abi.encodePacked(_p_id, msg.sender));\r\n        \r\n        // Check if the property exists and if the current user is the owner\r\n        require(properties[currentPropertyId].exists, \"Property does not exist\");\r\n        require(properties[currentPropertyId].owner == msg.sender, \"Only the owner can transfer the property\");\r\n\r\n        // Create a new property ID for the new owner\r\n        string memory newPropertyId = string(abi.encodePacked(_p_id, _newOwner));\r\n        \r\n        // Transfer the property by creating a new entry for the new owner\r\n        properties[newPropertyId] = Property(newPropertyId, _p_id, _newOwner, properties[currentPropertyId].details, properties[currentPropertyId].addresses, true);\r\n        propertyIds.push(newPropertyId);\r\n\r\n        // Emit the transfer event\r\n        emit PropertyTransferred(currentPropertyId, msg.sender, _newOwner);\r\n    }\r\n\r\n    // Function to retrieve all registered properties\r\n    function getAllProperties() public view returns (string[] memory, address[] memory, string[] memory, string[][] memory) {\r\n        string[] memory ids = new string[](propertyIds.length);\r\n        address[] memory owners = new address[](propertyIds.length);\r\n        string[] memory details = new string[](propertyIds.length);\r\n        string[][] memory addressesList = new string[][](propertyIds.length);\r\n\r\n        for (uint256 i = 0; i < propertyIds.length; i++) {\r\n            Property memory property = properties[propertyIds[i]];\r\n            ids[i] = property.propertyId;\r\n            owners[i] = property.owner;\r\n            details[i] = property.details;\r\n            addressesList[i] = property.addresses; // Add addresses to the return\r\n        }\r\n\r\n        return (ids, owners, details, addressesList);\r\n    }\r\n}\r\n",
  "sourcePath": "C:\\Users\\punno\\Desktop\\CODING\\blockchain\\finalfinal\\contracts\\LandRegistry.sol",
  "compiler": {
    "name": "solc",
    "version": "0.8.0+commit.c7dfd78e.Emscripten.clang"
  },
  "schemaVersion": "3.4.16",
  "updatedAt": "2024-10-02T20:10:02.607Z",
  "networkType": "ethereum",
  "devdoc": {
    "kind": "dev",
    "methods": {},
    "version": 1
  },
  "userdoc": {
    "kind": "user",
    "methods": {},
    "version": 1
  }
}