{
  "contractName": "LandRegistry",
  "abi": [
    {
      "anonymous": false,
      "inputs": [
        {
          "indexed": false,
          "internalType": "string",
          "name": "propertyId",
          "type": "string"
        },
        {
          "indexed": false,
          "internalType": "address",
          "name": "owner",
          "type": "address"
        }
      ],
      "name": "PropertyRegistered",
      "type": "event"
    },
    {
      "anonymous": false,
      "inputs": [
        {
          "indexed": false,
          "internalType": "string",
          "name": "propertyId",
          "type": "string"
        },
        {
          "indexed": false,
          "internalType": "address",
          "name": "oldOwner",
          "type": "address"
        },
        {
          "indexed": false,
          "internalType": "address",
          "name": "newOwner",
          "type": "address"
        }
      ],
      "name": "PropertyTransferred",
      "type": "event"
    },
    {
      "inputs": [
        {
          "internalType": "string",
          "name": "_p_id",
          "type": "string"
        },
        {
          "internalType": "address",
          "name": "_owner",
          "type": "address"
        },
        {
          "internalType": "string",
          "name": "_details",
          "type": "string"
        }
      ],
      "name": "registerProperty",
      "outputs": [],
      "stateMutability": "nonpayable",
      "type": "function"
    },
    {
      "inputs": [
        {
          "internalType": "string",
          "name": "_p_id",
          "type": "string"
        }
      ],
      "name": "viewPropertyByPId",
      "outputs": [
        {
          "internalType": "string",
          "name": "",
          "type": "string"
        },
        {
          "internalType": "address",
          "name": "",
          "type": "address"
        },
        {
          "internalType": "string",
          "name": "",
          "type": "string"
        }
      ],
      "stateMutability": "view",
      "type": "function",
      "constant": true
    },
    {
      "inputs": [
        {
          "internalType": "string",
          "name": "_p_id",
          "type": "string"
        },
        {
          "internalType": "address",
          "name": "_newOwner",
          "type": "address"
        }
      ],
      "name": "transferProperty",
      "outputs": [],
      "stateMutability": "nonpayable",
      "type": "function"
    },
    {
      "inputs": [],
      "name": "getAllProperties",
      "outputs": [
        {
          "internalType": "string[]",
          "name": "",
          "type": "string[]"
        },
        {
          "internalType": "address[]",
          "name": "",
          "type": "address[]"
        },
        {
          "internalType": "string[]",
          "name": "",
          "type": "string[]"
        }
      ],
      "stateMutability": "view",
      "type": "function",
      "constant": true
    }
  ],
  "bytecode": "0x608060405234801561001057600080fd5b50611a77806100206000396000f3fe608060405234801561001057600080fd5b506004361061004c5760003560e01c80630a1ba0b6146100515780633d51402c1461006d57806381cb70db1461008d578063f64f7fb2146100bf575b600080fd5b61006b60048036038101906100669190611174565b6100db565b005b61007561033e565b60405161008493929190611585565b60405180910390f35b6100a760048036038101906100a291906110df565b61088b565b6040516100b69392919061163f565b60405180910390f35b6100d960048036038101906100d49190611120565b610c11565b005b6002836040516100eb919061152f565b908152602001604051809103902060009054906101000a900460ff1615610147576040517f08c379a000000000000000000000000000000000000000000000000000000000815260040161013e90611684565b60405180910390fd5b6000838360405160200161015c929190611546565b60405160208183030381529060405290506040518060a001604052808281526020018581526020018473ffffffffffffffffffffffffffffffffffffffff168152602001838152602001600115158152506000826040516101bd919061152f565b908152602001604051809103902060008201518160000190805190602001906101e7929190610fbf565b506020820151816001019080519060200190610204929190610fbf565b5060408201518160020160006101000a81548173ffffffffffffffffffffffffffffffffffffffff021916908373ffffffffffffffffffffffffffffffffffffffff1602179055506060820151816003019080519060200190610268929190610fbf565b5060808201518160040160006101000a81548160ff0219169083151502179055509050506001819080600181540180825580915050600190039060005260206000200160009091909190915090805190602001906102c7929190610fbf565b5060016002856040516102da919061152f565b908152602001604051809103902060006101000a81548160ff0219169083151502179055507fba4092460bba778b9ffed9867d5694153585e1eaff95260f3b4b35cf7eb9c48e81846040516103309291906115d1565b60405180910390a150505050565b6060806060600060018054905067ffffffffffffffff81111561038a577f4e487b7100000000000000000000000000000000000000000000000000000000600052604160045260246000fd5b6040519080825280602002602001820160405280156103bd57816020015b60608152602001906001900390816103a85790505b509050600060018054905067ffffffffffffffff811115610407577f4e487b7100000000000000000000000000000000000000000000000000000000600052604160045260246000fd5b6040519080825280602002602001820160405280156104355781602001602082028036833780820191505090505b509050600060018054905067ffffffffffffffff81111561047f577f4e487b7100000000000000000000000000000000000000000000000000000000600052604160045260246000fd5b6040519080825280602002602001820160405280156104b257816020015b606081526020019060019003908161049d5790505b50905060005b6001805490508110156108795760008060018381548110610502577f4e487b7100000000000000000000000000000000000000000000000000000000600052603260045260246000fd5b90600052602060002001604051610519919061156e565b90815260200160405180910390206040518060a0016040529081600082018054610542906118e0565b80601f016020809104026020016040519081016040528092919081815260200182805461056e906118e0565b80156105bb5780601f10610590576101008083540402835291602001916105bb565b820191906000526020600020905b81548152906001019060200180831161059e57829003601f168201915b505050505081526020016001820180546105d4906118e0565b80601f0160208091040260200160405190810160405280929190818152602001828054610600906118e0565b801561064d5780601f106106225761010080835404028352916020019161064d565b820191906000526020600020905b81548152906001019060200180831161063057829003601f168201915b505050505081526020016002820160009054906101000a900473ffffffffffffffffffffffffffffffffffffffff1673ffffffffffffffffffffffffffffffffffffffff1673ffffffffffffffffffffffffffffffffffffffff1681526020016003820180546106bc906118e0565b80601f01602080910402602001604051908101604052809291908181526020018280546106e8906118e0565b80156107355780601f1061070a57610100808354040283529160200191610735565b820191906000526020600020905b81548152906001019060200180831161071857829003601f168201915b505050505081526020016004820160009054906101000a900460ff16151515158152505090508060000151858381518110610799577f4e487b7100000000000000000000000000000000000000000000000000000000600052603260045260246000fd5b602002602001018190525080604001518483815181106107e2577f4e487b7100000000000000000000000000000000000000000000000000000000600052603260045260246000fd5b602002602001019073ffffffffffffffffffffffffffffffffffffffff16908173ffffffffffffffffffffffffffffffffffffffff1681525050806060015183838151811061085a577f4e487b7100000000000000000000000000000000000000000000000000000000600052603260045260246000fd5b602002602001018190525050808061087190611912565b9150506104b8565b50828282955095509550505050909192565b606060006060600060018054905090505b6000811115610bce57600080600180846108b69190611804565b815481106108ed577f4e487b7100000000000000000000000000000000000000000000000000000000600052603260045260246000fd5b90600052602060002001604051610904919061156e565b90815260200160405180910390206040518060a001604052908160008201805461092d906118e0565b80601f0160208091040260200160405190810160405280929190818152602001828054610959906118e0565b80156109a65780601f1061097b576101008083540402835291602001916109a6565b820191906000526020600020905b81548152906001019060200180831161098957829003601f168201915b505050505081526020016001820180546109bf906118e0565b80601f01602080910402602001604051908101604052809291908181526020018280546109eb906118e0565b8015610a385780601f10610a0d57610100808354040283529160200191610a38565b820191906000526020600020905b815481529060010190602001808311610a1b57829003601f168201915b505050505081526020016002820160009054906101000a900473ffffffffffffffffffffffffffffffffffffffff1673ffffffffffffffffffffffffffffffffffffffff1673ffffffffffffffffffffffffffffffffffffffff168152602001600382018054610aa7906118e0565b80601f0160208091040260200160405190810160405280929190818152602001828054610ad3906118e0565b8015610b205780601f10610af557610100808354040283529160200191610b20565b820191906000526020600020905b815481529060010190602001808311610b0357829003601f168201915b505050505081526020016004820160009054906101000a900460ff161515151581525050905085604051602001610b57919061152f565b604051602081830303815290604052805190602001208160200151604051602001610b82919061152f565b604051602081830303815290604052805190602001201415610bba578060000151816040015182606001519450945094505050610c0a565b508080610bc6906118b6565b91505061089c565b506040517f08c379a0000000000000000000000000000000000000000000000000000000008152600401610c01906116c4565b60405180910390fd5b9193909250565b60008233604051602001610c26929190611546565b6040516020818303038152906040529050600081604051610c47919061152f565b908152602001604051809103902060040160009054906101000a900460ff16610ca5576040517f08c379a0000000000000000000000000000000000000000000000000000000008152600401610c9c906116c4565b60405180910390fd5b3373ffffffffffffffffffffffffffffffffffffffff16600082604051610ccc919061152f565b908152602001604051809103902060020160009054906101000a900473ffffffffffffffffffffffffffffffffffffffff1673ffffffffffffffffffffffffffffffffffffffff1614610d54576040517f08c379a0000000000000000000000000000000000000000000000000000000008152600401610d4b906116a4565b60405180910390fd5b60008383604051602001610d69929190611546565b60405160208183030381529060405290506040518060a001604052808281526020018581526020018473ffffffffffffffffffffffffffffffffffffffff168152602001600084604051610dbd919061152f565b90815260200160405180910390206003018054610dd9906118e0565b80601f0160208091040260200160405190810160405280929190818152602001828054610e05906118e0565b8015610e525780601f10610e2757610100808354040283529160200191610e52565b820191906000526020600020905b815481529060010190602001808311610e3557829003601f168201915b5050505050815260200160011515815250600082604051610e73919061152f565b90815260200160405180910390206000820151816000019080519060200190610e9d929190610fbf565b506020820151816001019080519060200190610eba929190610fbf565b5060408201518160020160006101000a81548173ffffffffffffffffffffffffffffffffffffffff021916908373ffffffffffffffffffffffffffffffffffffffff1602179055506060820151816003019080519060200190610f1e929190610fbf565b5060808201518160040160006101000a81548160ff021916908315150217905550905050600181908060018154018082558091505060019003906000526020600020016000909190919091509080519060200190610f7d929190610fbf565b507fc97abf666e272fea65687f234e376b717fd130c2a8b0fc847228e7aa0b57e9bd823385604051610fb193929190611601565b60405180910390a150505050565b828054610fcb906118e0565b90600052602060002090601f016020900481019282610fed5760008555611034565b82601f1061100657805160ff1916838001178555611034565b82800160010185558215611034579182015b82811115611033578251825591602001919060010190611018565b5b5090506110419190611045565b5090565b5b8082111561105e576000816000905550600101611046565b5090565b600061107561107084611715565b6116e4565b90508281526020810184848401111561108d57600080fd5b611098848285611874565b509392505050565b6000813590506110af81611a2a565b92915050565b600082601f8301126110c657600080fd5b81356110d6848260208601611062565b91505092915050565b6000602082840312156110f157600080fd5b600082013567ffffffffffffffff81111561110b57600080fd5b611117848285016110b5565b91505092915050565b6000806040838503121561113357600080fd5b600083013567ffffffffffffffff81111561114d57600080fd5b611159858286016110b5565b925050602061116a858286016110a0565b9150509250929050565b60008060006060848603121561118957600080fd5b600084013567ffffffffffffffff8111156111a357600080fd5b6111af868287016110b5565b93505060206111c0868287016110a0565b925050604084013567ffffffffffffffff8111156111dd57600080fd5b6111e9868287016110b5565b9150509250925092565b60006111ff838361121f565b60208301905092915050565b60006112178383611327565b905092915050565b61122881611838565b82525050565b61123781611838565b82525050565b61124e61124982611838565b61195b565b82525050565b600061125f8261177a565b61126981856117b5565b935061127483611745565b8060005b838110156112a557815161128c88826111f3565b97506112978361179b565b925050600181019050611278565b5085935050505092915050565b60006112bd82611785565b6112c781856117c6565b9350836020820285016112d985611755565b8060005b8581101561131557848403895281516112f6858261120b565b9450611301836117a8565b925060208a019950506001810190506112dd565b50829750879550505050505092915050565b600061133282611790565b61133c81856117d7565b935061134c818560208601611883565b61135581611a0c565b840191505092915050565b600061136b82611790565b61137581856117e8565b9350611385818560208601611883565b61138e81611a0c565b840191505092915050565b60006113a482611790565b6113ae81856117f9565b93506113be818560208601611883565b80840191505092915050565b600081546113d7816118e0565b6113e181866117f9565b945060018216600081146113fc576001811461140d57611440565b60ff19831686528186019350611440565b61141685611765565b60005b8381101561143857815481890152600182019150602081019050611419565b838801955050505b50505092915050565b6000611456601e836117e8565b91507f50726f706572747920494420616c7265616479207265676973746572656400006000830152602082019050919050565b60006114966028836117e8565b91507f4f6e6c7920746865206f776e65722063616e207472616e73666572207468652060008301527f70726f70657274790000000000000000000000000000000000000000000000006020830152604082019050919050565b60006114fc6017836117e8565b91507f50726f706572747920646f6573206e6f742065786973740000000000000000006000830152602082019050919050565b600061153b8284611399565b915081905092915050565b60006115528285611399565b915061155e828461123d565b6014820191508190509392505050565b600061157a82846113ca565b915081905092915050565b6000606082019050818103600083015261159f81866112b2565b905081810360208301526115b38185611254565b905081810360408301526115c781846112b2565b9050949350505050565b600060408201905081810360008301526115eb8185611360565b90506115fa602083018461122e565b9392505050565b6000606082019050818103600083015261161b8186611360565b905061162a602083018561122e565b611637604083018461122e565b949350505050565b600060608201905081810360008301526116598186611360565b9050611668602083018561122e565b818103604083015261167a8184611360565b9050949350505050565b6000602082019050818103600083015261169d81611449565b9050919050565b600060208201905081810360008301526116bd81611489565b9050919050565b600060208201905081810360008301526116dd816114ef565b9050919050565b6000604051905081810181811067ffffffffffffffff8211171561170b5761170a6119dd565b5b8060405250919050565b600067ffffffffffffffff8211156117305761172f6119dd565b5b601f19601f8301169050602081019050919050565b6000819050602082019050919050565b6000819050602082019050919050565b60008190508160005260206000209050919050565b600081519050919050565b600081519050919050565b600081519050919050565b6000602082019050919050565b6000602082019050919050565b600082825260208201905092915050565b600082825260208201905092915050565b600082825260208201905092915050565b600082825260208201905092915050565b600081905092915050565b600061180f8261186a565b915061181a8361186a565b92508282101561182d5761182c61197f565b5b828203905092915050565b60006118438261184a565b9050919050565b600073ffffffffffffffffffffffffffffffffffffffff82169050919050565b6000819050919050565b82818337600083830152505050565b60005b838110156118a1578082015181840152602081019050611886565b838111156118b0576000848401525b50505050565b60006118c18261186a565b915060008214156118d5576118d461197f565b5b600182039050919050565b600060028204905060018216806118f857607f821691505b6020821081141561190c5761190b6119ae565b5b50919050565b600061191d8261186a565b91507fffffffffffffffffffffffffffffffffffffffffffffffffffffffffffffffff8214156119505761194f61197f565b5b600182019050919050565b60006119668261196d565b9050919050565b600061197882611a1d565b9050919050565b7f4e487b7100000000000000000000000000000000000000000000000000000000600052601160045260246000fd5b7f4e487b7100000000000000000000000000000000000000000000000000000000600052602260045260246000fd5b7f4e487b7100000000000000000000000000000000000000000000000000000000600052604160045260246000fd5b6000601f19601f8301169050919050565b60008160601b9050919050565b611a3381611838565b8114611a3e57600080fd5b5056fea2646970667358221220b61577ae93b1de6a726dba58236728849c66733f7f6ea7dd5871136255fdc25264736f6c63430008000033",
  "immutableReferences": {},
  "source": "// SPDX-License-Identifier: MIT\r\npragma solidity ^0.8.0;\r\n\r\ncontract LandRegistry {\r\n    struct Property {\r\n        string propertyId;  // Combination of p_id and owner address\r\n        string p_id;        // Original property ID\r\n        address owner;      // Current owner's address\r\n        string details;     // Property details\r\n        bool exists;        // Indicates if the property exists\r\n    }\r\n\r\n    mapping(string => Property) private properties;\r\n    string[] private propertyIds; // To keep track of all registered property IDs\r\n    mapping(string => bool) private registeredPIds; // Track registered p_ids to ensure uniqueness\r\n\r\n    event PropertyRegistered(string propertyId, address owner);\r\n    event PropertyTransferred(string propertyId, address oldOwner, address newOwner);\r\n\r\n    function registerProperty(string memory _p_id, address _owner, string memory _details) public {\r\n        require(!registeredPIds[_p_id], \"Property ID already registered\");\r\n\r\n        string memory propertyId = string(abi.encodePacked(_p_id, _owner));\r\n        properties[propertyId] = Property(propertyId, _p_id, _owner, _details, true);\r\n        propertyIds.push(propertyId);\r\n        registeredPIds[_p_id] = true; // Mark p_id as registered\r\n\r\n        emit PropertyRegistered(propertyId, _owner);\r\n    }\r\n\r\n    // New function to view property by p_id\r\n    function viewPropertyByPId(string memory _p_id) public view returns (string memory, address, string memory) {\r\n        // Loop through propertyIds to find the latest entry for the given p_id\r\n        for (uint256 i = propertyIds.length; i > 0; i--) {\r\n            Property memory property = properties[propertyIds[i - 1]];\r\n            if (keccak256(abi.encodePacked(property.p_id)) == keccak256(abi.encodePacked(_p_id))) {\r\n                return (property.propertyId, property.owner, property.details);\r\n            }\r\n        }\r\n        revert(\"Property does not exist\");\r\n    }\r\n\r\n    function transferProperty(string memory _p_id, address _newOwner) public {\r\n    // Construct the current property ID based on p_id and caller's address\r\n    string memory currentPropertyId = string(abi.encodePacked(_p_id, msg.sender));\r\n    \r\n    // Check if the property exists and if the current user is the owner\r\n    require(properties[currentPropertyId].exists, \"Property does not exist\");\r\n    require(properties[currentPropertyId].owner == msg.sender, \"Only the owner can transfer the property\");\r\n\r\n    // Create a new property ID for the new owner\r\n    string memory newPropertyId = string(abi.encodePacked(_p_id, _newOwner));\r\n    \r\n    // Transfer the property by creating a new entry for the new owner\r\n    properties[newPropertyId] = Property(newPropertyId, _p_id, _newOwner, properties[currentPropertyId].details, true);\r\n    propertyIds.push(newPropertyId);\r\n\r\n    // Emit the transfer event\r\n    emit PropertyTransferred(currentPropertyId, msg.sender, _newOwner);\r\n    }\r\n\r\n\r\n    // Function to retrieve all registered properties\r\n    function getAllProperties() public view returns (string[] memory, address[] memory, string[] memory) {\r\n        string[] memory ids = new string[](propertyIds.length);\r\n        address[] memory owners = new address[](propertyIds.length);\r\n        string[] memory details = new string[](propertyIds.length);\r\n\r\n        for (uint256 i = 0; i < propertyIds.length; i++) {\r\n            Property memory property = properties[propertyIds[i]];\r\n            ids[i] = property.propertyId;\r\n            owners[i] = property.owner;\r\n            details[i] = property.details;\r\n        }\r\n\r\n        return (ids, owners, details);\r\n    }\r\n}\r\n",
  "sourcePath": "C:\\Users\\punno\\Desktop\\CODING\\blockchain\\finalfinal\\contracts\\LandRegistry.sol",
  "compiler": {
    "name": "solc",
    "version": "0.8.0+commit.c7dfd78e.Emscripten.clang"
  },
  "schemaVersion": "3.4.16",
  "updatedAt": "2024-10-02T10:40:59.008Z",
  "networkType": "ethereum",
  "devdoc": {
    "kind": "dev",
    "methods": {},
    "version": 1
  },
  "userdoc": {
    "kind": "user",
    "methods": {},
    "version": 1
  }
}