{
  "contractName": "LandRegistry",
  "abi": [
    {
      "anonymous": false,
      "inputs": [
        {
          "indexed": false,
          "internalType": "string",
          "name": "propertyId",
          "type": "string"
        },
        {
          "indexed": false,
          "internalType": "string",
          "name": "owner",
          "type": "string"
        }
      ],
      "name": "PropertyRegistered",
      "type": "event"
    },
    {
      "anonymous": false,
      "inputs": [
        {
          "indexed": false,
          "internalType": "string",
          "name": "propertyId",
          "type": "string"
        },
        {
          "indexed": false,
          "internalType": "string",
          "name": "oldOwner",
          "type": "string"
        },
        {
          "indexed": false,
          "internalType": "string",
          "name": "newOwner",
          "type": "string"
        }
      ],
      "name": "PropertyTransferred",
      "type": "event"
    },
    {
      "inputs": [
        {
          "internalType": "string",
          "name": "_propertyId",
          "type": "string"
        },
        {
          "internalType": "string",
          "name": "_owner",
          "type": "string"
        },
        {
          "internalType": "string",
          "name": "_details",
          "type": "string"
        }
      ],
      "name": "registerProperty",
      "outputs": [],
      "stateMutability": "nonpayable",
      "type": "function"
    },
    {
      "inputs": [
        {
          "internalType": "string",
          "name": "_propertyId",
          "type": "string"
        }
      ],
      "name": "viewProperty",
      "outputs": [
        {
          "internalType": "string",
          "name": "",
          "type": "string"
        },
        {
          "internalType": "string",
          "name": "",
          "type": "string"
        },
        {
          "internalType": "string",
          "name": "",
          "type": "string"
        }
      ],
      "stateMutability": "view",
      "type": "function",
      "constant": true
    },
    {
      "inputs": [
        {
          "internalType": "string",
          "name": "_propertyId",
          "type": "string"
        },
        {
          "internalType": "string",
          "name": "_newOwner",
          "type": "string"
        }
      ],
      "name": "transferProperty",
      "outputs": [],
      "stateMutability": "nonpayable",
      "type": "function"
    },
    {
      "inputs": [],
      "name": "getAllProperties",
      "outputs": [
        {
          "internalType": "string[]",
          "name": "",
          "type": "string[]"
        },
        {
          "internalType": "string[]",
          "name": "",
          "type": "string[]"
        },
        {
          "internalType": "string[]",
          "name": "",
          "type": "string[]"
        }
      ],
      "stateMutability": "view",
      "type": "function",
      "constant": true
    }
  ],
  "bytecode": "0x608060405234801561001057600080fd5b5061156d806100206000396000f3fe608060405234801561001057600080fd5b506004361061004c5760003560e01c80633d51402c14610051578063dc30f64114610071578063dc87d003146100a3578063f6eaad73146100bf575b600080fd5b6100596100db565b60405161006893929190611159565b60405180910390f35b61008b60048036038101906100869190610d24565b6105a8565b60405161009a939291906111dc565b60405180910390f35b6100bd60048036038101906100b89190610d65565b610835565b005b6100d960048036038101906100d49190610dd1565b610a74565b005b6060806060600060018054905067ffffffffffffffff811115610127577f4e487b7100000000000000000000000000000000000000000000000000000000600052604160045260246000fd5b60405190808252806020026020018201604052801561015a57816020015b60608152602001906001900390816101455790505b509050600060018054905067ffffffffffffffff8111156101a4577f4e487b7100000000000000000000000000000000000000000000000000000000600052604160045260246000fd5b6040519080825280602002602001820160405280156101d757816020015b60608152602001906001900390816101c25790505b509050600060018054905067ffffffffffffffff811115610221577f4e487b7100000000000000000000000000000000000000000000000000000000600052604160045260246000fd5b60405190808252806020026020018201604052801561025457816020015b606081526020019060019003908161023f5790505b50905060005b60018054905081101561059657600080600183815481106102a4577f4e487b7100000000000000000000000000000000000000000000000000000000600052603260045260246000fd5b906000526020600020016040516102bb9190611142565b90815260200160405180910390206040518060800160405290816000820180546102e4906113ed565b80601f0160208091040260200160405190810160405280929190818152602001828054610310906113ed565b801561035d5780601f106103325761010080835404028352916020019161035d565b820191906000526020600020905b81548152906001019060200180831161034057829003601f168201915b50505050508152602001600182018054610376906113ed565b80601f01602080910402602001604051908101604052809291908181526020018280546103a2906113ed565b80156103ef5780601f106103c4576101008083540402835291602001916103ef565b820191906000526020600020905b8154815290600101906020018083116103d257829003601f168201915b50505050508152602001600282018054610408906113ed565b80601f0160208091040260200160405190810160405280929190818152602001828054610434906113ed565b80156104815780601f1061045657610100808354040283529160200191610481565b820191906000526020600020905b81548152906001019060200180831161046457829003601f168201915b505050505081526020016003820160009054906101000a900460ff161515151581525050905080600001518583815181106104e5577f4e487b7100000000000000000000000000000000000000000000000000000000600052603260045260246000fd5b6020026020010181905250806020015184838151811061052e577f4e487b7100000000000000000000000000000000000000000000000000000000600052603260045260246000fd5b60200260200101819052508060400151838381518110610577577f4e487b7100000000000000000000000000000000000000000000000000000000600052603260045260246000fd5b602002602001018190525050808061058e9061141f565b91505061025a565b50828282955095509550505050909192565b60608060606000846040516105bd919061112b565b908152602001604051809103902060030160009054906101000a900460ff1661061b576040517f08c379a000000000000000000000000000000000000000000000000000000000815260040161061290611268565b60405180910390fd5b6000808560405161062c919061112b565b9081526020016040518091039020604051806080016040529081600082018054610655906113ed565b80601f0160208091040260200160405190810160405280929190818152602001828054610681906113ed565b80156106ce5780601f106106a3576101008083540402835291602001916106ce565b820191906000526020600020905b8154815290600101906020018083116106b157829003601f168201915b505050505081526020016001820180546106e7906113ed565b80601f0160208091040260200160405190810160405280929190818152602001828054610713906113ed565b80156107605780601f1061073557610100808354040283529160200191610760565b820191906000526020600020905b81548152906001019060200180831161074357829003601f168201915b50505050508152602001600282018054610779906113ed565b80601f01602080910402602001604051908101604052809291908181526020018280546107a5906113ed565b80156107f25780601f106107c7576101008083540402835291602001916107f2565b820191906000526020600020905b8154815290600101906020018083116107d557829003601f168201915b505050505081526020016003820160009054906101000a900460ff1615151515815250509050806000015181602001518260400151935093509350509193909250565b600082604051610845919061112b565b908152602001604051809103902060030160009054906101000a900460ff166108a3576040517f08c379a000000000000000000000000000000000000000000000000000000000815260040161089a90611268565b60405180910390fd5b336040516020016108b49190611110565b604051602081830303815290604052805190602001206000836040516108da919061112b565b90815260200160405180910390206001016040516020016108fb9190611142565b6040516020818303038152906040528051906020012014610951576040517f08c379a000000000000000000000000000000000000000000000000000000000815260040161094890611228565b60405180910390fd5b60008083604051610962919061112b565b9081526020016040518091039020600101805461097e906113ed565b80601f01602080910402602001604051908101604052809291908181526020018280546109aa906113ed565b80156109f75780601f106109cc576101008083540402835291602001916109f7565b820191906000526020600020905b8154815290600101906020018083116109da57829003601f168201915b5050505050905081600084604051610a0f919061112b565b90815260200160405180910390206001019080519060200190610a33929190610c19565b507f162410e9c24571a6db71effa271c38b157fa8ac67daf942d3979782a442f6fcc838284604051610a67939291906111dc565b60405180910390a1505050565b600083604051610a84919061112b565b908152602001604051809103902060030160009054906101000a900460ff1615610ae3576040517f08c379a0000000000000000000000000000000000000000000000000000000008152600401610ada90611248565b60405180910390fd5b604051806080016040528084815260200183815260200182815260200160011515815250600084604051610b17919061112b565b90815260200160405180910390206000820151816000019080519060200190610b41929190610c19565b506020820151816001019080519060200190610b5e929190610c19565b506040820151816002019080519060200190610b7b929190610c19565b5060608201518160030160006101000a81548160ff021916908315150217905550905050600183908060018154018082558091505060019003906000526020600020016000909190919091509080519060200190610bda929190610c19565b507f413edf6b6e401aa29ea423c7ab894650773db2d3ce68ba9116fdc9e3473b1dce8383604051610c0c9291906111a5565b60405180910390a1505050565b828054610c25906113ed565b90600052602060002090601f016020900481019282610c475760008555610c8e565b82601f10610c6057805160ff1916838001178555610c8e565b82800160010185558215610c8e579182015b82811115610c8d578251825591602001919060010190610c72565b5b509050610c9b9190610c9f565b5090565b5b80821115610cb8576000816000905550600101610ca0565b5090565b6000610ccf610cca846112b9565b611288565b905082815260208101848484011115610ce757600080fd5b610cf28482856113ab565b509392505050565b600082601f830112610d0b57600080fd5b8135610d1b848260208601610cbc565b91505092915050565b600060208284031215610d3657600080fd5b600082013567ffffffffffffffff811115610d5057600080fd5b610d5c84828501610cfa565b91505092915050565b60008060408385031215610d7857600080fd5b600083013567ffffffffffffffff811115610d9257600080fd5b610d9e85828601610cfa565b925050602083013567ffffffffffffffff811115610dbb57600080fd5b610dc785828601610cfa565b9150509250929050565b600080600060608486031215610de657600080fd5b600084013567ffffffffffffffff811115610e0057600080fd5b610e0c86828701610cfa565b935050602084013567ffffffffffffffff811115610e2957600080fd5b610e3586828701610cfa565b925050604084013567ffffffffffffffff811115610e5257600080fd5b610e5e86828701610cfa565b9150509250925092565b6000610e748383610f08565b905092915050565b610e8d610e888261136f565b611468565b82525050565b6000610e9e8261130e565b610ea88185611331565b935083602082028501610eba856112e9565b8060005b85811015610ef65784840389528151610ed78582610e68565b9450610ee283611324565b925060208a01995050600181019050610ebe565b50829750879550505050505092915050565b6000610f1382611319565b610f1d8185611342565b9350610f2d8185602086016113ba565b610f3681611519565b840191505092915050565b6000610f4c82611319565b610f568185611353565b9350610f668185602086016113ba565b610f6f81611519565b840191505092915050565b6000610f8582611319565b610f8f8185611364565b9350610f9f8185602086016113ba565b80840191505092915050565b60008154610fb8816113ed565b610fc28186611364565b94506001821660008114610fdd5760018114610fee57611021565b60ff19831686528186019350611021565b610ff7856112f9565b60005b8381101561101957815481890152600182019150602081019050610ffa565b838801955050505b50505092915050565b6000611037602883611353565b91507f4f6e6c7920746865206f776e65722063616e207472616e73666572207468652060008301527f70726f70657274790000000000000000000000000000000000000000000000006020830152604082019050919050565b600061109d601b83611353565b91507f50726f706572747920616c7265616479207265676973746572656400000000006000830152602082019050919050565b60006110dd601783611353565b91507f50726f706572747920646f6573206e6f742065786973740000000000000000006000830152602082019050919050565b600061111c8284610e7c565b60148201915081905092915050565b60006111378284610f7a565b915081905092915050565b600061114e8284610fab565b915081905092915050565b600060608201905081810360008301526111738186610e93565b905081810360208301526111878185610e93565b9050818103604083015261119b8184610e93565b9050949350505050565b600060408201905081810360008301526111bf8185610f41565b905081810360208301526111d38184610f41565b90509392505050565b600060608201905081810360008301526111f68186610f41565b9050818103602083015261120a8185610f41565b9050818103604083015261121e8184610f41565b9050949350505050565b600060208201905081810360008301526112418161102a565b9050919050565b6000602082019050818103600083015261126181611090565b9050919050565b60006020820190508181036000830152611281816110d0565b9050919050565b6000604051905081810181811067ffffffffffffffff821117156112af576112ae6114ea565b5b8060405250919050565b600067ffffffffffffffff8211156112d4576112d36114ea565b5b601f19601f8301169050602081019050919050565b6000819050602082019050919050565b60008190508160005260206000209050919050565b600081519050919050565b600081519050919050565b6000602082019050919050565b600082825260208201905092915050565b600082825260208201905092915050565b600082825260208201905092915050565b600081905092915050565b600061137a82611381565b9050919050565b600073ffffffffffffffffffffffffffffffffffffffff82169050919050565b6000819050919050565b82818337600083830152505050565b60005b838110156113d85780820151818401526020810190506113bd565b838111156113e7576000848401525b50505050565b6000600282049050600182168061140557607f821691505b60208210811415611419576114186114bb565b5b50919050565b600061142a826113a1565b91507fffffffffffffffffffffffffffffffffffffffffffffffffffffffffffffffff82141561145d5761145c61148c565b5b600182019050919050565b60006114738261147a565b9050919050565b60006114858261152a565b9050919050565b7f4e487b7100000000000000000000000000000000000000000000000000000000600052601160045260246000fd5b7f4e487b7100000000000000000000000000000000000000000000000000000000600052602260045260246000fd5b7f4e487b7100000000000000000000000000000000000000000000000000000000600052604160045260246000fd5b6000601f19601f8301169050919050565b60008160601b905091905056fea26469706673582212205e23f65ba63b553d043bdffbbbb3cb2d0adf12fee5208b90ecc546515595b41a64736f6c63430008000033",
  "immutableReferences": {},
  "source": "// SPDX-License-Identifier: MIT\r\npragma solidity ^0.8.0;\r\n\r\ncontract LandRegistry {\r\n    struct Property {\r\n        string propertyId;\r\n        string owner;\r\n        string details;\r\n        bool exists;\r\n    }\r\n\r\n    mapping(string => Property) private properties;\r\n    string[] private propertyIds; // To keep track of all registered property IDs\r\n\r\n    event PropertyRegistered(string propertyId, string owner);\r\n    event PropertyTransferred(string propertyId, string oldOwner, string newOwner);\r\n\r\n    function registerProperty(string memory _propertyId, string memory _owner, string memory _details) public {\r\n        require(!properties[_propertyId].exists, \"Property already registered\");\r\n        \r\n        properties[_propertyId] = Property(_propertyId, _owner, _details, true);\r\n        propertyIds.push(_propertyId); // Add the property ID to the list\r\n        emit PropertyRegistered(_propertyId, _owner);\r\n    }\r\n\r\n    function viewProperty(string memory _propertyId) public view returns (string memory, string memory, string memory) {\r\n        require(properties[_propertyId].exists, \"Property does not exist\");\r\n        \r\n        Property memory property = properties[_propertyId];\r\n        return (property.propertyId, property.owner, property.details);\r\n    }\r\n\r\n    function transferProperty(string memory _propertyId, string memory _newOwner) public {\r\n        require(properties[_propertyId].exists, \"Property does not exist\");\r\n        require(keccak256(abi.encodePacked(properties[_propertyId].owner)) == keccak256(abi.encodePacked(msg.sender)), \"Only the owner can transfer the property\");\r\n        \r\n        string memory oldOwner = properties[_propertyId].owner;\r\n        properties[_propertyId].owner = _newOwner;\r\n        emit PropertyTransferred(_propertyId, oldOwner, _newOwner);\r\n    }\r\n\r\n    // New function to retrieve all registered properties\r\n    function getAllProperties() public view returns (string[] memory, string[] memory, string[] memory) {\r\n        string[] memory ids = new string[](propertyIds.length);\r\n        string[] memory owners = new string[](propertyIds.length);\r\n        string[] memory details = new string[](propertyIds.length);\r\n\r\n        for (uint256 i = 0; i < propertyIds.length; i++) {\r\n            Property memory property = properties[propertyIds[i]];\r\n            ids[i] = property.propertyId;\r\n            owners[i] = property.owner;\r\n            details[i] = property.details;\r\n        }\r\n\r\n        return (ids, owners, details);\r\n    }\r\n}\r\n",
  "sourcePath": "C:\\Users\\punno\\Desktop\\CODING\\blockchain\\finalfinal\\contracts\\LandRegistry.sol",
  "compiler": {
    "name": "solc",
    "version": "0.8.0+commit.c7dfd78e.Emscripten.clang"
  },
  "schemaVersion": "3.4.16",
  "updatedAt": "2024-10-02T09:00:07.123Z",
  "networkType": "ethereum",
  "devdoc": {
    "kind": "dev",
    "methods": {},
    "version": 1
  },
  "userdoc": {
    "kind": "user",
    "methods": {},
    "version": 1
  }
}